:1000000002000E0000000000000000020193758154
:10001000361202C2E582600302007A780079007A23
:10002000007B007C007D00EC4D601C88828983E4AD
:1000300093A3A882A9838A828B83F0A3AA82AB832D
:100040001CBCFFE31D80E07582007583007C007D91
:1000500000EC4D600AE4F0A31CBCFFF51D80F275B6
:1000600082007583007C007D00EC4D600AE4F0A303
:100070001CBCFFF51D80F212007F12022880FEE4F6
:10008000F52BF52CE4F52DF52E227A007B00C3EA42
:100090009464EB6480948050147C647D001CBCFFED
:1000A000011DEC4D70F70ABA00E40B80E122D2A7E3
:1000B000C2A612016202018BAA82AB83ACF07D0062
:1000C0007E00ED2AFFEE3BF88C018F82888389F059
:1000D0001202A6FF60208F82C002C003C004C005C8
:1000E000C0061200AED006D005D004D003D0020D59
:1000F000BD00CF0E80CC22AA82AB83758280C00265
:10010000C003120117D003D002E52175F028A42AFC
:100110002480F582020117C2A7C2A6120162020161
:100120008BC2A512008A75823012011712008A75DF
:10013000823012011712008A7582301201171200E4
:100140008A75823812011775821012011775820C98
:1001500012011775820612011712008A75820102B8
:100160000117E582FA1392A4EAA2E192A3EAA2E2BD
:1001700092A2EAA2E392A1EAA2E492A0EAA2E59204
:1001800097EAA2E69296EA33929422D2A512008AC6
:10019000C2A522C020C0E0C0F0C082C083C002C09F
:1001A00003C004C005C006C007C000C001C0D075B0
:1001B000D00012021475D0080523E523249C5003B7
:1001C00075230074012526F526E43527F527C37429
:1001D000E89526740395275007E4F526F5270528AA
:1001E000D0D0D001D000D007D006D005D004D003A5
:1001F000D002D083D082D0F0D0E0D02032C28CC2E6
:100200008D74F055894401F589120214D2A9D2AF38
:1002100075281722C28DC28C758CFE758A90D28C7F
:1002200022752800752A00221202481201211201AB
:10023000FD12022112026112008AE4F521F522F575
:1002400082F5831200F780EC75910075920075A419
:100250000075A50022E582FA139292EAA2E1929338
:100260002275F00AE5288475F00AC2D530E704D279
:10027000D5F40484E5F030D502F4042430F52F756C
:10028000F00AE52884E5F02430F530753141753207
:100290004275334375344475355A75360090002FD6
:1002A00075F0400200B820F71430F6148883A88255
:1002B00020F507E6A88375830022E280F7E4932205
:1002C000E022758200220000000000000000000013
:00000001FF
