:1000000002000375810B12025AE582600302006F41
:10001000780079007A007B007C007D00EC4D601C4C
:1000200088828983E493A3A882A9838A828B83F040
:10003000A3AA82AB831CBCFFE31D80E07582007520
:1000400083007C007D00EC4D600AE4F0A31CBCFF43
:10005000F51D80F27582007583007C007D00EC4DFB
:10006000600AE4F0A31CBCFFF51D80F212007D12B3
:1000700001E280FE48490048656C6C6F00E4F508B9
:10008000F50922227A007B00C3EA9464EB64809431
:100090008050147CE87D031CBCFF011DEC4D70F703
:1000A0000ABA00E40B80E122D2A7C2A61201AB0279
:1000B00001DAAA82AB83ACF07D007E00ED2AFFEE70
:1000C0003BF88C018F82888389F012023EFF60200A
:1000D0008F82C002C003C004C005C0061200A8D0B1
:1000E00006D005D004D003D0020DBD00CF0E80CCC9
:1000F00022AA82AB83758210C002C00312014BD0CA
:1001000003D002AC0AE50BC454F0CCC4CC6CCC5484
:10011000F0CC6CFDEC2AFAED3BFB7C007D00C3ECDF
:100120009AED64808BF063F08095F0501D75821419
:10013000C002C003C004C00512014BD005D004D0DA
:1001400003D0020CBC00D70D80D422C2A7C2A612D5
:1001500001AB0201DAC2A512008475823012014B94
:1001600012008475823012014B12008475823012A5
:10017000014B1200847401B50806E4B5090280023F
:10018000800875823812014B800675822812014B57
:1001900075821012014B75820C12014B758206128A
:1001A000014B12008475820102014BE582FA139221
:1001B000A4EAA2E192A3EAA2E292A2EAA2E392A1B5
:1001C000E50845096013EAA2E492A0EAA2E5929745
:1001D000EAA2E69296EA33929422D2A5120084C251
:1001E000A522120225120155758202120232758271
:1001F000411200A81200847582421200A890007477
:1002000075F0801200B2E4F50AF50B9000011200BF
:10021000F190007775F0801200B2758201120232FF
:1002200012008480C375910075920075A40075A5B5
:100230000022E582FA139292EAA2E192932220F739
:100240001430F6148883A88220F507E6A883758306
:100250000022E280F7E49322E0227582002200006F
:00000001FF
