:1000000002000E00000000000000000201D6758111
:100010004112047EE582600302007A780079007A5A
:10002000007B007C007D00EC4D601C88828983E4AD
:1000300093A3A882A9838A828B83F0A3AA82AB832D
:100040001CBCFFE31D80E07582007583007C007D91
:1000500000EC4D600AE4F0A31CBCFFF51D80F275B6
:1000600082007583007C007D00EC4D600AE4F0A303
:100070001CBCFFF51D80F212008812030780FE48A9
:10008000490048656C6C6F00E4F536F537E4F538E7
:10009000F539227A007B00C3EA9464EB6480948093
:1000A00050147CE87D031CBCFF011DEC4D70F70A69
:1000B000BA00E40B80E122D2A7C2A61201A5020178
:1000C000CEAA82AB83ACF07D007E00ED2AFFEE3B32
:1000D000F88C018F82888389F0120390FF60208F53
:1000E00082C002C003C004C005C0061200B7D0061B
:1000F000D005D004D003D0020DBD00CF0E80CC229D
:10010000AA82AB83758210C002C00312015AD003C9
:10011000D002AC21E522C454F0CCC4CC6CCC54F059
:10012000CC6CFDEC2AFAED3BFB7C007D00C3EC9A25
:10013000ED64808BF063F08095F0501D758214C0E3
:1001400002C003C004C00512015AD005D004D00378
:10015000D0020CBC00D70D80D422C2A7C2A61201C7
:10016000A50201CEC2A512009375823012015A1267
:10017000009375823012015A120093758230120179
:100180005A12009375823812015A75821012015A60
:1001900075820C12015A75820612015A120093756B
:1001A000820102015AE582FA1392A4EAA2E192A323
:1001B000EAA2E292A2EAA2E392A1EAA2E492A0EA6F
:1001C000A2E59297EAA2E69296EA33929422D2A509
:1001D000120093C2A522C020C0E0C0F0C082C0833C
:1001E000C002C003C004C005C006C007C000C001F3
:1001F000C0D075D0001202E875D0080523E523248D
:100200009C5003752300E53845396007C3E5239505
:100210002492B0E53645376007C3E523952592B1B2
:1002200074012526F526E43527F527E43528F52839
:10023000E43529F529C374E8952674039527E495D8
:1002400028E464808529F063F08095F0501EE4F581
:1002500026F527F528F5297401252AF52AE4352BFA
:10026000F52BE4352CF52CE4352DF52D7401252ED8
:10027000F52EE4352FF52FE43530F530E43531F542
:1002800031C37464952EE4952FE49530E464808541
:1002900031F063F08095F0501EE4F52EF52FF53027
:1002A000F53174012532F532E43533F533E4353474
:1002B000F534E43535F535D0D0D001D000D007D0B5
:1002C00006D005D004D003D002D083D082D0F0D0A5
:1002D000E0D02032C28CC28D74F055894401F5897A
:1002E0001202E8D2A9D2AF22C28DC28C758CFE75E3
:1002F0008A90D28C22E4F52AF52BF52CF52DF532D7
:10030000F533F534F5352212035A12016475820172
:1003100012015A75820212036712009390007F75D2
:10032000F0801200C1752104E4F522900000120152
:100330000090007F75F0801200C1752101E4F52264
:1003400090000112010090008275F0801200C175CA
:10035000820112036712009380B3759100759200B9
:1003600075A40075A50022E582FA139292EAA2E133
:1003700092932275100AE4F511F512F513852A827D
:10038000852B83852CF0E52D12042FAA828A3A2230
:1003900020F71430F6148883A88220F507E6A88396
:1003A00075830022E280F7E49322E022F9E510450C
:1003B000114512451360777800C308E51320E73B29
:1003C000E51025E0F510E51133F511E51233F512CE
:1003D000E51333F513E5829510E5839511E5F09566
:1003E00012E9951350D4C3E51313F513E51213F571
:1003F00012E51113F511E51013F510E5829510FCC7
:10040000E5839511FDE5F09512FEE995134007F996
:100410008EF08D838C82C3E51313F513E51213F56B
:1004200012E51113F511E51013F510D8CEE922F9F4
:10043000C2D530E715D2D5E4C39582F582E4958321
:10044000F583E495F0F5F0E499F9E51330E715E468
:10045000C39510F510E49511F511E49512F512E429
:100460009513F513E91203AC30D512E4C39582F568
:1004700082E49583F583E495F0F5F0E499227582A2
:10048000002200000000000000000000000000004A
:00000001FF
