:1000000002000E00000000000000000201C0758127
:100010003E1205BDE582600302007A780079007A1D
:10002000007B007C007D00EC4D601C88828983E4AD
:1000300093A3A882A9838A828B83F0A3AA82AB832D
:100040001CBCFFE31D80E07582007583007C007D91
:1000500000EC4D600AE4F0A31CBCFFF51D80F275B6
:1000600082007583007C007D00EC4D600AE4F0A303
:100070001CBCFFF51D80F21200891202E580FE42D1
:100080006174746572793A2000E4F526F527E4F589
:100090002CF52DE4F52EF52FE4F530F531E4F532AD
:1000A000F533753407227A007B00C3EA9464EB646D
:1000B00080948050147C647D001CBCFF011DEC4DBD
:1000C00070F70ABA00E40B80E12275100AE4F5111A
:1000D00012050FAA8274302AF58222D2A7C2A61274
:1000E000018F0201B8AA82AB83ACF07D007E00EDE7
:1000F0002AFFEE3BF88C018F82888389F01204710D
:10010000FF60208F82C002C003C004C005C0061279
:1001100000DBD006D005D004D003D0020DBD00CF47
:100120000E80CC22AA82AB83758280C002C00312EB
:100130000144D003D002E52175F028A42A2480F5DB
:1001400082020144C2A7C2A612018F0201B8C2A551
:100150001200A67582301201441200A67582301278
:1001600001441200A67582301201441200A6758265
:100170003812014475821012014475820C12014438
:100180007582061201441200A6758201020144E53F
:1001900082FA1392A4EAA2E192A3EAA2E292A2EA6C
:1001A000A2E392A1EAA2E492A0EAA2E59297EAA2CF
:1001B000E69296EA33929422D2A51200A6C2A52214
:1001C000C020C0E0C0F0C082C083C002C003C00431
:1001D000C005C006C007C000C001C0D075D0001265
:1001E00002C275D00874012526F526E43527F527C7
:1001F000C374639526E495275005E4F526F527E5B5
:100200003045316024751064E4F511852682852718
:100210008375D00012050F75D008AA82AB83AC2479
:100220007D00C3EA9CEB9D92B0E52C452D602475C2
:100230001064E4F51185268285278375D0001205A8
:100240000F75D008AA82AB83AC257D00C3EA9CEB76
:100250009D92B174012526F526E43527F527751002
:100260000AE4F51185268285278375D00012050FD3
:1002700075D008E5828583F045F070157401252856
:10028000F528E43529F529E4352AF52AE4352BF556
:100290002BD0D0D001D000D007D006D005D004D0CC
:1002A00003D002D083D082D0F0D0E0D02032C28CF4
:1002B000C28D74F055894401F5891202C2D2A9D2C7
:1002C000AF22C28DC28C758CFE758A90D28C22852D
:1002D0002882852983852AF0E52B22E4F528F52953
:1002E000F52AF52B2212030812014E1202AE120259
:1002F000DB12032112040D1200A6E4F521F522F50C
:1003000082F58312012480E975910075920075A42D
:100310000075A50022E582FA139292EAA2E1929377
:10032000221202CF7510E8751103751200751300C3
:1003300012048DAA82AB8375103CE4F5118A828B7E
:1003400083C002C00312055CAC82AD83D003D0022F
:10035000C3EA943CEB6480948040258C108D11900E
:10036000003CC002C003C004C0051204F2AE82AF5C
:1003700083D005D004D003D002EAC39EFAEB9FFBE2
:1003800075100AE4F5118C828D83C002C003C0048D
:10039000C00512055C1200CAE582D005D004F5350F
:1003A0008C828D831200CAE582D003D002F53675A7
:1003B000373A75100AE4F5118A828B83C002C003B4
:1003C00012055C1200CAE582D003D002F5388A8299
:1003D0008B831200CAE582F539753A2E1202CFAA34
:1003E00082AB83ACF0FD751064E4F511F512F513E2
:1003F0008A828B838CF0ED12048D1200CAE582F59F
:100400003B753C0090003575F0400200E575210118
:10041000E4F5229000001201249000041200CAE5C5
:1004200082F53D753E2E9000041200CAE582F53F2C
:1004300090007F75F0801200E590003D75F040025D
:1004400000E5E53424F84028E534253425349004CB
:10045000527302046A02046B02046C02046D02040B
:100460006E02046F020470020470222222222222F1
:100470002220F71430F6148883A88220F507E6A816
:100480008375830022E280F7E49322E022FB7A2046
:10049000E4FCFDFEFFE5822582F582E58333F583EA
:1004A000E5F033F5F0EB33FB4017DAE98042E58203
:1004B0002582F582E58333F583E5F033F5F0EB3300
:1004C000FBEC33FCED33FDEE33FEEF33FFEC951028
:1004D000ED9511EE9512EF95134013EC9510FCED90
:1004E0009511FDEE9512FEEF9513FF438201DABEE2
:1004F000EB22E5828510F0A4C582C0F08511F0A43E
:10050000D0F025F0C5838510F0A42583F58322E57E
:1005100010451160467A01E51025E0F510E511332C
:100520004012F511E5829510E583951140030A808C
:10053000E6C3E51113F511E51013F510C3E5829537
:1005400010F5F0E58395114005F58385F082C3E54C
:100550001113F511E51013F510DAE122C2D5E58388
:1005600030E70DD2D5E4C39582F582E49583F58317
:10057000E51130E70DB2D5E4C39510F510E49511FF
:10058000F51112059430D50BE4C39582F582E495FC
:1005900083F583227A10E4FBFCE58225E0F582E511
:1005A0008333F583EB33FBEC33FCEB9510F5F0EC88
:1005B00095114006FCABF0438201DADD2275820022
:1005C0002200000000000000000000000000000009
:00000001FF
