:1000000002000375810912023AE582600302006F63
:10001000780079007A007B007C007D00EC4D601C4C
:1000200088828983E493A3A882A9838A828B83F040
:10003000A3AA82AB831CBCFFE31D80E07582007520
:1000400083007C007D00EC4D600AE4F0A31CBCFF43
:10005000F51D80F27582007583007C007D00EC4DFB
:10006000600AE4F0A31CBCFFF51D80F212007D12B3
:1000700001C280FE48490048656C6C6F0022227AFC
:10008000007B00C3EA9464EB6480948050147CE8A5
:100090007D031CBCFF011DEC4D70F70ABA00E40B98
:1000A00080E122D2A7C2A61201910201BAAA82ABB4
:1000B00083ACF07D007E00ED2AFFEE3BF88C018FD3
:1000C00082888389F012021EFF60208F82C002C0E6
:1000D00003C004C005C0061200A3D006D005D0049A
:1000E000D003D0020DBD00CF0E80CC22AA82AB83FC
:1000F000758210C002C003120146D003D002AC08C2
:10010000E509C454F0CCC4CC6CCC54F0CC6CFDEC00
:100110002AFAED3BFB7C007D00C3EC9AED64808BFA
:10012000F063F08095F0501D758214C002C003C0CA
:1001300004C005120146D005D004D003D0020CBC87
:1001400000D70D80D422C2A7C2A61201910201BA23
:10015000C2A512007F75823012014612007F75829F
:100160003012014612007F75823012014612007F64
:1001700075823812014675821012014675820C1282
:10018000014675820612014612007F758201020146
:1001900046E582FA1392A4EAA2E192A3EAA2E292CD
:1001A000A2EAA2E392A1EAA2E492A0EAA2E59297CF
:1001B000EAA2E69296EA33929422D2A512007FC276
:1001C000A5221202051201507582021202127582D6
:1001D000411200A312007F7582421200A3900074A6
:1001E00075F0801200ADE4F508F5099000011200E9
:1001F000EC90007775F0801200AD7582011202124A
:1002000012007F80C375910075920075A40075A5DA
:100210000022E582FA139292EAA2E192932220F759
:100220001430F6148883A88220F507E6A883758326
:100230000022E280F7E49322E0227582002200008F
:00000001FF
