:100000000200037581091201BBE582600302006FE3
:10001000780079007A007B007C007D00EC4D601C4C
:1000200088828983E493A3A882A9838A828B83F040
:10003000A3AA82AB831CBCFFE31D80E07582007520
:1000400083007C007D00EC4D600AE4F0A31CBCFF43
:10005000F51D80F27582007583007C007D00EC4DFB
:10006000600AE4F0A31CBCFFF51D80F212007412BC
:10007000016080FE22227A007B00C3EA9464EB6474
:1000800080948050147CE87D031CBCFF011DEC4D66
:1000900070F70ABA00E40B80E122D2A7C2A61201CF
:1000A0002F020158AA82AB83ACF07D007E00ED2ABE
:1000B000FFEE3BF88C018F82888389F012019FFF4D
:1000C00060208F82C002C003C004C005C0061200B9
:1000D0009AD006D005D004D003D0020DBD00CF0EBB
:1000E00080CC2222C2A7C2A612012F020158C2A5AB
:1000F0001200767582301200E4120076758230129A
:1001000000E41200767582301200E41200767582E7
:10011000381200E47582101200E475820C1200E4BB
:100120007582061200E41200767582010200E4E591
:1001300082FA1392A4EAA2E192A3EAA2E292A2EACC
:10014000A2E392A1EAA2E492A0EAA2E59297EAA22F
:10015000E69296EA33929422D2A5120076C2A522A4
:100160001201861200EE758202120193758241120D
:10017000009A12007675824212009A75820112016D
:100180009312007680E075910075920075A4007559
:10019000A50022E582FA139292EAA2E1929322202C
:1001A000F71430F6148883A88220F507E6A8837533
:1001B000830022E280F7E49322E02275820022008D
:00000001FF
