:1000000002000375810912022EE582600302006F6F
:10001000780079007A007B007C007D00EC4D601C4C
:1000200088828983E493A3A882A9838A828B83F040
:10003000A3AA82AB831CBCFFE31D80E07582007520
:1000400083007C007D00EC4D600AE4F0A31CBCFF43
:10005000F51D80F27582007583007C007D00EC4DFB
:10006000600AE4F0A31CBCFFF51D80F212007D12B3
:1000700001C180FE48490048656C6C6F00227A001F
:100080007B00C3EA9464EB6480948050147CE87D28
:10009000031CBCFF011DEC4D70F70ABA00E40B8095
:1000A000E122D2A7C2A61201900201B9AA82AB83B3
:1000B000ACF07D007E00ED2AFFEE3BF88C018F82D4
:1000C000888389F0120212FF60208F82C002C00371
:1000D000C004C005C0061200A2D006D005D004D0CE
:1000E00003D0020DBD00CF0E80CC22AA82AB837557
:1000F0008210C002C003120145D003D002AC08E553
:1001000009C454F0CCC4CC6CCC54F0CC6CFDEC2ABB
:10011000FAED3BFB7C007D00C3EC9AED64808BF034
:1001200063F08095F0501D758214C002C003C004B6
:10013000C005120145D005D004D003D0020CBC008C
:10014000D70D80D422C2A7C2A61201900201B9C263
:10015000A512007E75823012014512007E75823034
:1001600012014512007E75823012014512007E7523
:10017000823812014575821012014575820C1201F8
:100180004575820612014512007E75820102014505
:10019000E582FA1392A4EAA2E192A3EAA2E292A271
:1001A000EAA2E392A1EAA2E492A0EAA2E59297EA87
:1001B000A2E69296EA33929422D2A512007EC2A5BC
:1001C000221201F912014F75820212020612007EFC
:1001D00090007475F0801200AC750801E4F5099088
:1001E00000001200EB90007775F0801200AC758271
:1001F0000112020612007E80CE7591007592007584
:10020000A40075A50022E582FA139292EAA2E19277
:10021000932220F71430F6148883A88220F507E68D
:10022000A88375830022E280F7E49322E02275829E
:10023000002200000000000000000000000000009C
:00000001FF
