:1000000002000E00000000000000000201A4758143
:1000100037120401E582600302007A780079007AE1
:10002000007B007C007D00EC4D601C88828983E4AD
:1000300093A3A882A9838A828B83F0A3AA82AB832D
:100040001CBCFFE31D80E07582007583007C007D91
:1000500000EC4D600AE4F0A31CBCFFF51D80F275B6
:1000600082007583007C007D00EC4D600AE4F0A303
:100070001CBCFFF51D80F212007F12024680FEE4D8
:10008000F52CF52DE4F52EF52F227A007B00C3EA3E
:100090009464EB6480948050147C647D001CBCFFED
:1000A000011DEC4D70F70ABA00E40B80E1227510D7
:1000B0000AE4F51112037CAA8274302AF58222D256
:1000C000A7C2A612017302019CAA82AB83ACF07D89
:1000D000007E00ED2AFFEE3BF88C018F8288838939
:1000E000F0120337FF60208F82C002C003C004C03B
:1000F00005C0061200BFD006D005D004D003D00240
:100100000DBD00CF0E80CC22AA82AB83758280C049
:1001100002C003120128D003D002E52175F028A403
:100120002A2480F582020128C2A7C2A61201730206
:10013000019CC2A512008A75823012012812008A21
:1001400075823012012812008A758230120128123D
:10015000008A758238120128758210120128758272
:100160000C12012875820612012812008A7582017C
:10017000020128E582FA1392A4EAA2E192A3EAA27C
:10018000E292A2EAA2E392A1EAA2E492A0EAA2E5A4
:100190009297EAA2E69296EA33929422D2A51200AE
:1001A0008AC2A522C020C0E0C0F0C082C083C002C5
:1001B000C003C004C005C006C007C000C001C0D055
:1001C00075D00012023175D0080523E523249C5018
:1001D0000375230074012526F526E43527F527C38A
:1001E00074E89526740395275010E4F526F52774D6
:1001F000012528F528E43529F529D0D0D001D000F3
:10020000D007D006D005D004D003D002D083D0824E
:10021000D0F0D0E0D02032C28CC28D74F055894429
:1002200001F589120231D2A9D2AF752817E4F52958
:1002300022C28DC28C758CFE758A90D28C22E4F518
:1002400028F529F52B22120266120132120217122A
:10025000023E12027F12008AE4F521F522F582F5B2
:100260008312010880EC75910075920075A40075E9
:10027000A50022E582FA139292EAA2E192932275F6
:10028000100AE4F511852882852983120353AA8276
:10029000AB8375103CE4F5118A828B83C002C003E6
:1002A0001203C9AC82AD83D003D002C3743C9AE47C
:1002B00064808BF063F08095F050047A007B008CB2
:1002C000828D83C002C003C004C0051200AEE58267
:1002D000D005D004F5308C828D831200AEE582D03B
:1002E00003D002F53175323A75100AE4F5118A82AD
:1002F0008B83C002C0031203C91200AEE582D00393
:10030000D002F5338A828B831200AEE582F5347514
:10031000352E8528828529831200AEE582F5367553
:10032000370090003075F0400200C9752101E4F5F6
:100330002290000002010820F71430F6148883A8E8
:100340008220F507E6A88375830022E280F7E49314
:1003500022E0227A10E4FBFCE58225E0F582E583C9
:1003600033F583EB33FBEC33FCEB9510F5F0EC95B8
:10037000114006FCABF0438201DADD22E5104511A5
:1003800060467A01E51025E0F510E511334012F5DD
:1003900011E5829510E583951140030A80E6C3E5D7
:1003A0001113F511E51013F510C3E5829510F5F062
:1003B000E58395114005F58385F082C3E51113F5BA
:1003C00011E51013F510DAE122C2D5E58330E70D0F
:1003D000D2D5E4C39582F582E49583F583E51130A7
:1003E000E70DB2D5E4C39510F510E49511F511129F
:1003F000035330D50BE4C39582F582E49583F583EE
:1004000022758200220000000000000000000000B1
:00000001FF
