:1000000002000375810712015EE582600302006F42
:10001000780079007A007B007C007D00EC4D601C4C
:1000200088828983E493A3A882A9838A828B83F040
:10003000A3AA82AB831CBCFFE31D80E07582007520
:1000400083007C007D00EC4D600AE4F0A31CBCFF43
:10005000F51D80F27582007583007C007D00EC4DFB
:10006000600AE4F0A31CBCFFF51D80F212007412BC
:10007000011F80FE227A007B00C3EA9464EB648057
:10008000948050147CE87D031CBCFF011DEC4D7076
:10009000F70ABA00E40B80E122C2A512007575824E
:1000A0003012010D12007575823012010D120075AB
:1000B00075823012010D12007575823812010D75AE
:1000C000821012010D75820C12010D75820612014B
:1000D0000D12007575820102010DE582FA1392A4DA
:1000E000EAA2E192A3EAA2E292A2EAA2E392A1EA40
:1000F000A2E492A0EAA2E59297EAA2E69296EA33F7
:10010000929422D2A7C2A61200DA020117C2A7C295
:10011000A61200DA020117D2A5120075C2A522129A
:100120000145120099758202120152758241120135
:100130000312007575824212010375820112015289
:1001400012007580E075910075920075A40075A588
:100150000022E582FA139293EAA2E192922275823A
:10016000002200000000000000000000000000006D
:00000001FF
