:1000000002000E00000000000000000201D6758111
:10001000411204B3E582600302007A780079007A25
:10002000007B007C007D00EC4D601C88828983E4AD
:1000300093A3A882A9838A828B83F0A3AA82AB832D
:100040001CBCFFE31D80E07582007583007C007D91
:1000500000EC4D600AE4F0A31CBCFFF51D80F275B6
:1000600082007583007C007D00EC4D600AE4F0A303
:100070001CBCFFF51D80F212008812030780FE48A9
:10008000490048656C6C6F00E4F532F533E4F534F3
:10009000F535227A007B00C3EA9464EB6480948097
:1000A00050147CE87D031CBCFF011DEC4D70F70A69
:1000B000BA00E40B80E122D2A7C2A61201A5020178
:1000C000CEAA82AB83ACF07D007E00ED2AFFEE3B32
:1000D000F88C018F82888389F01203C5FF60208F1E
:1000E00082C002C003C004C005C0061200B7D0061B
:1000F000D005D004D003D0020DBD00CF0E80CC229D
:10010000AA82AB83758210C002C00312015AD003C9
:10011000D002AC21E522C454F0CCC4CC6CCC54F059
:10012000CC6CFDEC2AFAED3BFB7C007D00C3EC9A25
:10013000ED64808BF063F08095F0501D758214C0E3
:1001400002C003C004C00512015AD005D004D00378
:10015000D0020CBC00D70D80D422C2A7C2A61201C7
:10016000A50201CEC2A512009375823012015A1267
:10017000009375823012015A120093758230120179
:100180005A12009375823812015A75821012015A60
:1001900075820C12015A75820612015A120093756B
:1001A000820102015AE582FA1392A4EAA2E192A323
:1001B000EAA2E292A2EAA2E392A1EAA2E492A0EA6F
:1001C000A2E59297EAA2E69296EA33929422D2A509
:1001D000120093C2A522C020C0E0C0F0C082C0833C
:1001E000C002C003C004C005C006C007C000C001F3
:1001F000C0D075D0001202E875D0080523E523248D
:100200009C5003752300E53445356007C3E523950D
:100210002492B0E53245336007C3E523952592B1BA
:1002200074012526F526E43527F527E43528F52839
:10023000E43529F529C374E8952674039527E495D8
:1002400028E464808529F063F08095F0501EE4F581
:1002500026F527F528F52974012536F536E43537D6
:10026000F537E43538F538E43539F5397401252AA0
:10027000F52AE4352BF52BE4352CF52CE4352DF55A
:100280002DC37464952AE4952BE4952CE464808551
:100290002DF063F08095F0501EE4F52AF52BF52C37
:1002A000F52D7401252EF52EE4352FF52FE435308C
:1002B000F530E43531F531D0D0D001D000D007D0C1
:1002C00006D005D004D003D002D083D082D0F0D0A5
:1002D000E0D02032C28CC28D74F055894401F5897A
:1002E0001202E8D2A9D2AF22C28DC28C758CFE75E3
:1002F0008A90D28C22E4F536F537F538F539F52EAB
:10030000F52FF530F531221203591201641202D48F
:100310001202F575820112015A75820212036612E9
:10032000009390007F75F0801200C1E4F521F52262
:10033000900003120100120372752101E4F522906E
:10034000000112010090008275F0801200C17582D8
:100350000112036612009380BA75910075920075C0
:10036000A40075A50022E582FA139292EAA2E19216
:10037000932275100AE4F511F512F513853682857E
:1003800037838538F0E539120464AA828A3A7510F9
:1003900064E4F511F512F5138536828537838538C7
:1003A000F0E539120464AA828A3B753C41753D42EE
:1003B000753E43753F4475404575410090003A7560
:1003C000F0400200C120F71430F6148883A8822080
:1003D000F507E6A88375830022E280F7E49322E024
:1003E00022F9E51045114512451360777800C308DE
:1003F000E51320E73BE51025E0F510E51133F51195
:10040000E51233F512E51333F513E5829510E58314
:100410009511E5F09512E9951350D4C3E51313F542
:1004200013E51213F512E51113F511E51013F5108C
:10043000E5829510FCE5839511FDE5F09512FEE946
:1004400095134007F98EF08D838C82C3E51313F565
:1004500013E51213F512E51113F511E51013F5105C
:10046000D8CEE922F9C2D530E715D2D5E4C39582BA
:10047000F582E49583F583E495F0F5F0E499F9E5E8
:100480001330E715E4C39510F510E49511F511E468
:100490009512F512E49513F513E91203E130D51224
:1004A000E4C39582F582E49583F583E495F0F5F055
:1004B000E499227582002200000000000000000084
:00000001FF
