:1000000002000E00000000000000000201D6758111
:10001000411204ADE582600302007A780079007A2B
:10002000007B007C007D00EC4D601C88828983E4AD
:1000300093A3A882A9838A828B83F0A3AA82AB832D
:100040001CBCFFE31D80E07582007583007C007D91
:1000500000EC4D600AE4F0A31CBCFFF51D80F275B6
:1000600082007583007C007D00EC4D600AE4F0A303
:100070001CBCFFF51D80F212008812030780FE48A9
:10008000490048656C6C6F00E4F536F537E4F538E7
:10009000F539227A007B00C3EA9464EB6480948093
:1000A00050147CE87D031CBCFF011DEC4D70F70A69
:1000B000BA00E40B80E122D2A7C2A61201A5020178
:1000C000CEAA82AB83ACF07D007E00ED2AFFEE3B32
:1000D000F88C018F82888389F01203BFFF60208F24
:1000E00082C002C003C004C005C0061200B7D0061B
:1000F000D005D004D003D0020DBD00CF0E80CC229D
:10010000AA82AB83758210C002C00312015AD003C9
:10011000D002AC21E522C454F0CCC4CC6CCC54F059
:10012000CC6CFDEC2AFAED3BFB7C007D00C3EC9A25
:10013000ED64808BF063F08095F0501D758214C0E3
:1001400002C003C004C00512015AD005D004D00378
:10015000D0020CBC00D70D80D422C2A7C2A61201C7
:10016000A50201CEC2A512009375823012015A1267
:10017000009375823012015A120093758230120179
:100180005A12009375823812015A75821012015A60
:1001900075820C12015A75820612015A120093756B
:1001A000820102015AE582FA1392A4EAA2E192A323
:1001B000EAA2E292A2EAA2E392A1EAA2E492A0EA6F
:1001C000A2E59297EAA2E69296EA33929422D2A509
:1001D000120093C2A522C020C0E0C0F0C082C0833C
:1001E000C002C003C004C005C006C007C000C001F3
:1001F000C0D075D0001202E875D0080523E523248D
:100200009C5003752300E53845396007C3E5239505
:100210002492B0E53645376007C3E523952592B1B2
:1002200074012526F526E43527F527E43528F52839
:10023000E43529F529C374E8952674039527E495D8
:1002400028E464808529F063F08095F0501EE4F581
:1002500026F527F528F5297401252AF52AE4352BFA
:10026000F52BE4352CF52CE4352DF52D7401252ED8
:10027000F52EE4352FF52FE43530F530E43531F542
:1002800031C37464952EE4952FE49530E464808541
:1002900031F063F08095F0501EE4F52EF52FF53027
:1002A000F53174012532F532E43533F533E4353474
:1002B000F534E43535F535D0D0D001D000D007D0B5
:1002C00006D005D004D003D002D083D082D0F0D0A5
:1002D000E0D02032C28CC28D74F055894401F5897A
:1002E0001202E8D2A9D2AF22C28DC28C758CFE75E3
:1002F0008A90D28C22E4F52AF52BF52CF52DF532D7
:10030000F533F534F5352212035312016475820179
:1003100012015A75820212036012009390007F75D9
:10032000F0801200C1E4F521F522900003120100D3
:1003300012036C752101E4F5229000011201009076
:10034000008275F0801200C17582011203601200F4
:100350009380BA75910075920075A40075A500226E
:10036000E582FA139292EAA2E192932275100AE4CE
:10037000F511F512F513852A82852B83852CF0E57E
:100380002D12045EAA828A3A751064E4F511F51202
:10039000F513852A82852B83852CF0E52D12045ECA
:1003A000AA828A3B753C41753D42753E43753F4488
:1003B00075404575410090003A75F0400200C1203B
:1003C000F71430F6148883A88220F507E6A8837511
:1003D000830022E280F7E49322E022F9E510451140
:1003E0004512451360777800C308E51320E73BE525
:1003F0001025E0F510E51133F511E51233F512E59E
:100400001333F513E5829510E5839511E5F0951208
:10041000E9951350D4C3E51313F513E51213F51240
:10042000E51113F511E51013F510E5829510FCE5C3
:10043000839511FDE5F09512FEE995134007F98EBD
:10044000F08D838C82C3E51313F513E51213F512B7
:10045000E51113F511E51013F510D8CEE922F9C214
:10046000D530E715D2D5E4C39582F582E49583F5BE
:1004700083E495F0F5F0E499F9E51330E715E4C36A
:100480009510F510E49511F511E49512F512E49527
:1004900013F513E91203DB30D512E4C39582F5821C
:1004A000E49583F583E495F0F5F0E49922758200F4
:1004B000220000000000000000000000000000001A
:00000001FF
