:1000000002000E00000000000000000201A4758143
:100010003712040EE582600302007A780079007AD4
:10002000007B007C007D00EC4D601C88828983E4AD
:1000300093A3A882A9838A828B83F0A3AA82AB832D
:100040001CBCFFE31D80E07582007583007C007D91
:1000500000EC4D600AE4F0A31CBCFFF51D80F275B6
:1000600082007583007C007D00EC4D600AE4F0A303
:100070001CBCFFF51D80F212007F12024680FEE4D8
:10008000F52CF52DE4F52EF52F227A007B00C3EA3E
:100090009464EB6480948050147C647D001CBCFFED
:1000A000011DEC4D70F70ABA00E40B80E1227510D7
:1000B0000AE4F511120389AA8274302AF58222D249
:1000C000A7C2A612017302019CAA82AB83ACF07D89
:1000D000007E00ED2AFFEE3BF88C018F8288838939
:1000E000F0120344FF60208F82C002C003C004C02E
:1000F00005C0061200BFD006D005D004D003D00240
:100100000DBD00CF0E80CC22AA82AB83758280C049
:1001100002C003120128D003D002E52175F028A403
:100120002A2480F582020128C2A7C2A61201730206
:10013000019CC2A512008A75823012012812008A21
:1001400075823012012812008A758230120128123D
:10015000008A758238120128758210120128758272
:100160000C12012875820612012812008A7582017C
:10017000020128E582FA1392A4EAA2E192A3EAA27C
:10018000E292A2EAA2E392A1EAA2E492A0EAA2E5A4
:100190009297EAA2E69296EA33929422D2A51200AE
:1001A0008AC2A522C020C0E0C0F0C082C083C002C5
:1001B000C003C004C005C006C007C000C001C0D055
:1001C00075D00012023175D0080523E523249C5018
:1001D0000375230074012526F526E43527F527C38A
:1001E00074E89526740395275010E4F526F52774D6
:1001F000012528F528E43529F529D0D0D001D000F3
:10020000D007D006D005D004D003D002D083D0824E
:10021000D0F0D0E0D02032C28CC28D74F055894429
:1002200001F589120231D2A9D2AF752817E4F52958
:1002300022C28DC28C758CFE758A90D28C22E4F518
:1002400028F529F52B22120266120132120217122A
:10025000023E12027F12008AE4F521F522F582F5B2
:100260008312010880EC75910075920075A40075E9
:10027000A50022E582FA139292EAA2E192932275F6
:10028000100AE4F511852882852983120360AA8269
:10029000AB8375103CE4F5118A828B83C002C003E6
:1002A0001203D6AC82AD83D003D002C3743C9AE46F
:1002B00064808BF063F08095F05008EA24C4FAEB78
:1002C00034FFFB75100AE4F5118C828D83C002C0E7
:1002D00003C004C0051203D61200AEE582D005D0DB
:1002E00004F5308C828D831200AEE582D003D002FB
:1002F000F53175323A75100AE4F5118A828B83C0A4
:1003000002C0031203D61200AEE582D003D002F57C
:10031000338A828B831200AEE582F53475352E85E3
:1003200028828529831200AEE582F5367537009064
:10033000003075F0400200C9752101E4F5229000FB
:100340000002010820F71430F6148883A88220F5F3
:1003500007E6A88375830022E280F7E49322E02277
:100360007A10E4FBFCE58225E0F582E58333F58332
:10037000EB33FBEC33FCEB9510F5F0EC95114006FC
:10038000FCABF0438201DADD22E510451160467ACC
:1003900001E51025E0F510E511334012F511E58275
:1003A0009510E583951140030A80E6C3E51113F526
:1003B00011E51013F510C3E5829510F5F0E583956E
:1003C000114005F58385F082C3E51113F511E510A1
:1003D00013F510DAE122C2D5E58330E70DD2D5E47A
:1003E000C39582F582E49583F583E51130E70DB27C
:1003F000D5E4C39510F510E49511F51112036030A2
:10040000D50BE4C39582F582E49583F5832275824A
:1004100000220000000000000000000000000000BA
:00000001FF
