:1000000002000375810712015FE582600302006F41
:10001000780079007A007B007C007D00EC4D601C4C
:1000200088828983E493A3A882A9838A828B83F040
:10003000A3AA82AB831CBCFFE31D80E07582007520
:1000400083007C007D00EC4D600AE4F0A31CBCFF43
:10005000F51D80F27582007583007C007D00EC4DFB
:10006000600AE4F0A31CBCFFF51D80F212007412BC
:10007000012080FE22227A007B00C3EA9464EB64B4
:1000800080948050147CE87D031CBCFF011DEC4D66
:1000900070F70ABA00E40B80E122C2A5120076755F
:1000A000823012010E12007675823012010E12009B
:1000B0007675823012010E12007675823812010EAA
:1000C00075821012010E75820C12010E75820612D5
:1000D000010E12007675820102010EE582FA13927A
:1000E000A4EAA2E192A3EAA2E292A2EAA2E392A186
:1000F000EAA2E492A0EAA2E59297EAA2E69296EA40
:1001000033929422D2A7C2A61200DB020118C2A722
:10011000C2A61200DB020118D2A5120076C2A522E7
:1001200012014612009A7582021201537582411221
:1001300001041200767582421201047582011201D7
:100140005312007680E075910075920075A40075D9
:10015000A50022E582FA139292EAA2E19293227517
:1001600082002200000000000000000000000000EB
:00000001FF
