:1000000002000E00000000000000000201AE758139
:100010003A1204CBE582600302007A780079007A14
:10002000007B007C007D00EC4D601C88828983E4AD
:1000300093A3A882A9838A828B83F0A3AA82AB832D
:100040001CBCFFE31D80E07582007583007C007D91
:1000500000EC4D600AE4F0A31CBCFFF51D80F275B6
:1000600082007583007C007D00EC4D600AE4F0A303
:100070001CBCFFF51D80F212008912025080FE4266
:100080006174746572793A2000E4F52CF52DE4F57D
:100090002EF52F227A007B00C3EA9464EB648094EF
:1000A0008050147C647D001CBCFF011DEC4D70F77A
:1000B0000ABA00E40B80E12275100AE4F51112047B
:1000C00046AA8274302AF58222D2A7C2A612017DE6
:1000D0000201A6AA82AB83ACF07D007E00ED2AFF70
:1000E000EE3BF88C018F82888389F01203E4FF6075
:1000F000208F82C002C003C004C005C0061200C920
:10010000D006D005D004D003D0020DBD00CF0E80A4
:10011000CC22AA82AB83758280C002C00312013256
:10012000D003D002E52175F028A42A2480F58202AC
:100130000132C2A7C2A612017D0201A6C2A5120009
:10014000947582301201321200947582301201329D
:1001500012009475823012013212009475823812A6
:10016000013275821012013275820C1201327582D1
:1001700006120132120094758201020132E582FA00
:100180001392A4EAA2E192A3EAA2E292A2EAA2E373
:1001900092A1EAA2E492A0EAA2E59297EAA2E692EC
:1001A00096EA33929422D2A5120094C2A522C020CE
:1001B000C0E0C0F0C082C083C002C003C004C0055C
:1001C000C006C007C000C001C0D075D00012023BFD
:1001D00075D0080523E523249C5003752300740182
:1001E0002526F526E43527F527C374E895267403FC
:1001F00095275010E4F526F52774012528F528E405
:100200003529F529D0D0D001D000D007D006D005AF
:10021000D004D003D002D083D082D0F0D0E0D02060
:1002200032C28CC28D74F055894401F58912023BAB
:10023000D2A9D2AF752817E4F52922C28DC28C75D8
:100240008CFE758A90D28C22E4F528F529F52B22B4
:1002500012027312013C12022112024812028C1285
:10026000035D120094E4F521F522F582F583120175
:100270001280E975910075920075A40075A50022A1
:10028000E582FA139292EAA2E192932275100AE4AF
:10029000F511852882852983120400AA82AB837513
:1002A000103CE4F5118A828B83C002C003120493D0
:1002B000AC82AD83D003D002C3EA943CEB6480945B
:1002C0008040258C108D1190003CC002C003C004FA
:1002D000C005120429AE82AF83D005D004D003D06C
:1002E00002EAC39EFAEB9FFB75100AE4F5118C82BB
:1002F0008D83C002C003C004C0051204931200B86D
:10030000E582D005D004F5308C828D831200B8E5EB
:1003100082D003D002F53175323A75100AE4F51136
:100320008A828B83C002C0031204931200B8E58254
:10033000D003D002F5338A828B831200B8E582F5B0
:100340003475352E8528828529831200B8E582F51B
:100350003675370090003075F0400200D3A280E47B
:1003600033F51075110090000512042975101875E9
:100370001104120493AA82AB83A280E433F51075B2
:100380001100900005C002C0031204297510F07519
:100390001128120493AC82AD83752101E4F52290FB
:1003A0000000C004C005120112D005D004D003D053
:1003B000028A828B83C004C0051200B8E582D00592
:1003C000D004F53875392E8C828D831200B8E58201
:1003D000F53A90007F75F0801200D390003875F0E8
:1003E000400200D320F71430F6148883A88220F549
:1003F00007E6A88375830022E280F7E49322E022D7
:100400007A10E4FBFCE58225E0F582E58333F58391
:10041000EB33FBEC33FCEB9510F5F0EC951140065B
:10042000FCABF0438201DADD22E5828510F0A4C541
:1004300082C0F08511F0A4D0F025F0C5838510F0BE
:10044000A42583F58322E510451160467A01E51065
:1004500025E0F510E511334012F511E5829510E520
:1004600083951140030A80E6C3E51113F511E510E9
:1004700013F510C3E5829510F5F0E583951140055D
:10048000F58385F082C3E51113F511E51013F5101E
:10049000DAE122C2D5E58330E70DD2D5E4C39582F7
:1004A000F582E49583F583E51130E70DB2D5E4C319
:1004B0009510F510E49511F51112040030D50BE4F8
:1004C000C39582F582E49583F5832275820022002C
:00000001FF
